{
  "contractName": "Final",
  "abi": [
    {
      "inputs": [],
      "payable": false,
      "stateMutability": "nonpayable",
      "type": "constructor"
    },
    {
      "anonymous": false,
      "inputs": [
        {
          "indexed": false,
          "name": "itemNumber",
          "type": "uint256"
        }
      ],
      "name": "ForSale",
      "type": "event"
    },
    {
      "anonymous": false,
      "inputs": [
        {
          "indexed": false,
          "name": "itemNumber",
          "type": "uint256"
        }
      ],
      "name": "Sold",
      "type": "event"
    },
    {
      "anonymous": false,
      "inputs": [
        {
          "indexed": false,
          "name": "itemNumber",
          "type": "uint256"
        }
      ],
      "name": "Shipped",
      "type": "event"
    },
    {
      "anonymous": false,
      "inputs": [
        {
          "indexed": false,
          "name": "itemNumber",
          "type": "uint256"
        }
      ],
      "name": "Received",
      "type": "event"
    },
    {
      "constant": false,
      "inputs": [],
      "name": "toggleStop",
      "outputs": [],
      "payable": false,
      "stateMutability": "nonpayable",
      "type": "function"
    },
    {
      "constant": true,
      "inputs": [],
      "name": "getNumItems",
      "outputs": [
        {
          "name": "",
          "type": "uint256"
        }
      ],
      "payable": false,
      "stateMutability": "view",
      "type": "function"
    },
    {
      "constant": true,
      "inputs": [],
      "name": "getNumActiveItems",
      "outputs": [
        {
          "name": "",
          "type": "uint256"
        }
      ],
      "payable": false,
      "stateMutability": "view",
      "type": "function"
    },
    {
      "constant": true,
      "inputs": [
        {
          "name": "n",
          "type": "uint256"
        }
      ],
      "name": "getSaleIndex",
      "outputs": [
        {
          "name": "",
          "type": "uint256"
        }
      ],
      "payable": false,
      "stateMutability": "view",
      "type": "function"
    },
    {
      "constant": true,
      "inputs": [
        {
          "name": "_cat",
          "type": "string"
        }
      ],
      "name": "getNumItemsInCat",
      "outputs": [
        {
          "name": "",
          "type": "uint256"
        }
      ],
      "payable": false,
      "stateMutability": "view",
      "type": "function"
    },
    {
      "constant": true,
      "inputs": [
        {
          "name": "_loc",
          "type": "string"
        }
      ],
      "name": "getNumItemsInLoc",
      "outputs": [
        {
          "name": "",
          "type": "uint256"
        }
      ],
      "payable": false,
      "stateMutability": "view",
      "type": "function"
    },
    {
      "constant": true,
      "inputs": [
        {
          "name": "_cat",
          "type": "string"
        },
        {
          "name": "n",
          "type": "uint256"
        }
      ],
      "name": "getCategoryIndex",
      "outputs": [
        {
          "name": "",
          "type": "uint256"
        }
      ],
      "payable": false,
      "stateMutability": "view",
      "type": "function"
    },
    {
      "constant": true,
      "inputs": [
        {
          "name": "_loc",
          "type": "string"
        },
        {
          "name": "n",
          "type": "uint256"
        }
      ],
      "name": "getLocationIndex",
      "outputs": [
        {
          "name": "",
          "type": "uint256"
        }
      ],
      "payable": false,
      "stateMutability": "view",
      "type": "function"
    },
    {
      "constant": true,
      "inputs": [
        {
          "name": "addr",
          "type": "address"
        }
      ],
      "name": "checkAdmin",
      "outputs": [
        {
          "name": "",
          "type": "uint256"
        }
      ],
      "payable": false,
      "stateMutability": "view",
      "type": "function"
    },
    {
      "constant": true,
      "inputs": [
        {
          "name": "addr",
          "type": "address"
        }
      ],
      "name": "checkSeller",
      "outputs": [
        {
          "name": "",
          "type": "uint256"
        }
      ],
      "payable": false,
      "stateMutability": "view",
      "type": "function"
    },
    {
      "constant": true,
      "inputs": [
        {
          "name": "addr",
          "type": "address"
        }
      ],
      "name": "checkBlacklist",
      "outputs": [
        {
          "name": "",
          "type": "uint256"
        }
      ],
      "payable": false,
      "stateMutability": "view",
      "type": "function"
    },
    {
      "constant": false,
      "inputs": [
        {
          "name": "newAdmin",
          "type": "address"
        }
      ],
      "name": "addAdmin",
      "outputs": [],
      "payable": true,
      "stateMutability": "payable",
      "type": "function"
    },
    {
      "constant": false,
      "inputs": [
        {
          "name": "newAdmin",
          "type": "address"
        }
      ],
      "name": "removeAdmin",
      "outputs": [],
      "payable": false,
      "stateMutability": "nonpayable",
      "type": "function"
    },
    {
      "constant": false,
      "inputs": [
        {
          "name": "newSeller",
          "type": "address"
        }
      ],
      "name": "addSeller",
      "outputs": [],
      "payable": true,
      "stateMutability": "payable",
      "type": "function"
    },
    {
      "constant": false,
      "inputs": [
        {
          "name": "newSeller",
          "type": "address"
        }
      ],
      "name": "removeSeller",
      "outputs": [],
      "payable": false,
      "stateMutability": "nonpayable",
      "type": "function"
    },
    {
      "constant": false,
      "inputs": [
        {
          "name": "newBlacklist",
          "type": "address"
        }
      ],
      "name": "addBlacklist",
      "outputs": [],
      "payable": false,
      "stateMutability": "nonpayable",
      "type": "function"
    },
    {
      "constant": false,
      "inputs": [
        {
          "name": "newBlacklist",
          "type": "address"
        }
      ],
      "name": "removeBlacklist",
      "outputs": [],
      "payable": false,
      "stateMutability": "nonpayable",
      "type": "function"
    },
    {
      "constant": false,
      "inputs": [
        {
          "name": "_email",
          "type": "bytes32"
        }
      ],
      "name": "addEmail",
      "outputs": [],
      "payable": false,
      "stateMutability": "nonpayable",
      "type": "function"
    },
    {
      "constant": true,
      "inputs": [
        {
          "name": "_user",
          "type": "address"
        }
      ],
      "name": "getEmail",
      "outputs": [
        {
          "name": "",
          "type": "bytes32"
        }
      ],
      "payable": false,
      "stateMutability": "view",
      "type": "function"
    },
    {
      "constant": false,
      "inputs": [
        {
          "name": "_name",
          "type": "string"
        },
        {
          "name": "_price",
          "type": "uint256"
        },
        {
          "name": "_ipfsHash",
          "type": "string"
        },
        {
          "name": "_quantity",
          "type": "uint256"
        },
        {
          "name": "_category",
          "type": "string"
        },
        {
          "name": "_location",
          "type": "string"
        }
      ],
      "name": "addItem",
      "outputs": [
        {
          "name": "",
          "type": "bool"
        }
      ],
      "payable": false,
      "stateMutability": "nonpayable",
      "type": "function"
    },
    {
      "constant": false,
      "inputs": [],
      "name": "withdraw",
      "outputs": [],
      "payable": true,
      "stateMutability": "payable",
      "type": "function"
    },
    {
      "constant": false,
      "inputs": [
        {
          "name": "itemNumber",
          "type": "uint256"
        }
      ],
      "name": "buyItem",
      "outputs": [],
      "payable": true,
      "stateMutability": "payable",
      "type": "function"
    },
    {
      "constant": true,
      "inputs": [
        {
          "name": "a",
          "type": "address"
        }
      ],
      "name": "sellerInfo",
      "outputs": [
        {
          "name": "",
          "type": "uint256"
        },
        {
          "name": "",
          "type": "uint256"
        },
        {
          "name": "",
          "type": "uint256"
        },
        {
          "name": "",
          "type": "uint256"
        }
      ],
      "payable": false,
      "stateMutability": "view",
      "type": "function"
    },
    {
      "constant": false,
      "inputs": [
        {
          "name": "transactionNumber",
          "type": "uint256"
        }
      ],
      "name": "shipItem",
      "outputs": [],
      "payable": false,
      "stateMutability": "nonpayable",
      "type": "function"
    },
    {
      "constant": false,
      "inputs": [
        {
          "name": "transactionNumber",
          "type": "uint256"
        },
        {
          "name": "rateSeller",
          "type": "bool"
        },
        {
          "name": "_sellerRating",
          "type": "uint256"
        }
      ],
      "name": "receiveItem",
      "outputs": [],
      "payable": false,
      "stateMutability": "nonpayable",
      "type": "function"
    },
    {
      "constant": false,
      "inputs": [
        {
          "name": "transactionNumber",
          "type": "uint256"
        },
        {
          "name": "_sellerRating",
          "type": "uint256"
        }
      ],
      "name": "rateSeller",
      "outputs": [],
      "payable": false,
      "stateMutability": "nonpayable",
      "type": "function"
    },
    {
      "constant": true,
      "inputs": [
        {
          "name": "transactionNumber",
          "type": "uint256"
        }
      ],
      "name": "isRated",
      "outputs": [
        {
          "name": "",
          "type": "bool"
        }
      ],
      "payable": false,
      "stateMutability": "view",
      "type": "function"
    },
    {
      "constant": true,
      "inputs": [
        {
          "name": "itemNumber",
          "type": "uint256"
        }
      ],
      "name": "getIpfsHash",
      "outputs": [
        {
          "name": "",
          "type": "string"
        }
      ],
      "payable": false,
      "stateMutability": "view",
      "type": "function"
    },
    {
      "constant": true,
      "inputs": [
        {
          "name": "itemNumber",
          "type": "uint256"
        }
      ],
      "name": "getQuantity",
      "outputs": [
        {
          "name": "",
          "type": "uint256"
        }
      ],
      "payable": false,
      "stateMutability": "view",
      "type": "function"
    },
    {
      "constant": true,
      "inputs": [
        {
          "name": "itemNumber",
          "type": "uint256"
        }
      ],
      "name": "getCategory",
      "outputs": [
        {
          "name": "",
          "type": "string"
        }
      ],
      "payable": false,
      "stateMutability": "view",
      "type": "function"
    },
    {
      "constant": true,
      "inputs": [
        {
          "name": "itemNumber",
          "type": "uint256"
        }
      ],
      "name": "getLocation",
      "outputs": [
        {
          "name": "",
          "type": "string"
        }
      ],
      "payable": false,
      "stateMutability": "view",
      "type": "function"
    },
    {
      "constant": true,
      "inputs": [
        {
          "name": "itemNumber",
          "type": "uint256"
        }
      ],
      "name": "getItemData",
      "outputs": [
        {
          "name": "_name",
          "type": "string"
        },
        {
          "name": "_price",
          "type": "uint256"
        },
        {
          "name": "_state",
          "type": "uint8"
        },
        {
          "name": "_seller",
          "type": "address"
        }
      ],
      "payable": false,
      "stateMutability": "view",
      "type": "function"
    },
    {
      "constant": true,
      "inputs": [
        {
          "name": "addr",
          "type": "address"
        }
      ],
      "name": "getNumPurchases",
      "outputs": [
        {
          "name": "",
          "type": "uint256"
        }
      ],
      "payable": false,
      "stateMutability": "view",
      "type": "function"
    },
    {
      "constant": true,
      "inputs": [
        {
          "name": "addr",
          "type": "address"
        }
      ],
      "name": "getNumUnsold",
      "outputs": [
        {
          "name": "",
          "type": "uint256"
        }
      ],
      "payable": false,
      "stateMutability": "view",
      "type": "function"
    },
    {
      "constant": true,
      "inputs": [
        {
          "name": "addr",
          "type": "address"
        },
        {
          "name": "i",
          "type": "uint256"
        }
      ],
      "name": "getUnsold",
      "outputs": [
        {
          "name": "",
          "type": "uint256"
        }
      ],
      "payable": false,
      "stateMutability": "view",
      "type": "function"
    },
    {
      "constant": true,
      "inputs": [
        {
          "name": "addr",
          "type": "address"
        }
      ],
      "name": "getNumSales",
      "outputs": [
        {
          "name": "",
          "type": "uint256"
        }
      ],
      "payable": false,
      "stateMutability": "view",
      "type": "function"
    },
    {
      "constant": true,
      "inputs": [
        {
          "name": "addr",
          "type": "address"
        },
        {
          "name": "i",
          "type": "uint256"
        }
      ],
      "name": "getBuy",
      "outputs": [
        {
          "name": "",
          "type": "uint256"
        }
      ],
      "payable": false,
      "stateMutability": "view",
      "type": "function"
    },
    {
      "constant": true,
      "inputs": [
        {
          "name": "addr",
          "type": "address"
        },
        {
          "name": "i",
          "type": "uint256"
        }
      ],
      "name": "getSell",
      "outputs": [
        {
          "name": "",
          "type": "uint256"
        }
      ],
      "payable": false,
      "stateMutability": "view",
      "type": "function"
    },
    {
      "constant": true,
      "inputs": [
        {
          "name": "n",
          "type": "uint256"
        }
      ],
      "name": "getTxInfo",
      "outputs": [
        {
          "name": "_buyer",
          "type": "address"
        },
        {
          "name": "_txState",
          "type": "uint8"
        },
        {
          "name": "_itemIndex",
          "type": "uint256"
        },
        {
          "name": "_rating",
          "type": "uint256"
        }
      ],
      "payable": false,
      "stateMutability": "view",
      "type": "function"
    },
    {
      "constant": false,
      "inputs": [
        {
          "name": "_ownerText",
          "type": "string"
        }
      ],
      "name": "postText",
      "outputs": [],
      "payable": false,
      "stateMutability": "nonpayable",
      "type": "function"
    },
    {
      "constant": true,
      "inputs": [],
      "name": "getText",
      "outputs": [
        {
          "name": "",
          "type": "string"
        }
      ],
      "payable": false,
      "stateMutability": "view",
      "type": "function"
    },
    {
      "constant": false,
      "inputs": [
        {
          "name": "itemNumber",
          "type": "uint256"
        }
      ],
      "name": "deleteItem",
      "outputs": [],
      "payable": false,
      "stateMutability": "nonpayable",
      "type": "function"
    },
    {
      "constant": false,
      "inputs": [
        {
          "name": "_name",
          "type": "string"
        },
        {
          "name": "_price",
          "type": "uint256"
        },
        {
          "name": "_ipfsHash",
          "type": "string"
        },
        {
          "name": "_quantity",
          "type": "uint256"
        },
        {
          "name": "_category",
          "type": "string"
        },
        {
          "name": "itemNumber",
          "type": "uint256"
        },
        {
          "name": "_location",
          "type": "string"
        }
      ],
      "name": "editItem",
      "outputs": [
        {
          "name": "",
          "type": "bool"
        }
      ],
      "payable": false,
      "stateMutability": "nonpayable",
      "type": "function"
    }
  ],
  "bytecode": "0x60806040523480156200001157600080fd5b506000600660006101000a81548160ff021916908315150217905550336000806101000a81548173ffffffffffffffffffffffffffffffffffffffff021916908373ffffffffffffffffffffffffffffffffffffffff1602179055506020604051908101604052806000815250600290805190602001906200009592919062000435565b5060007f65746862617a61617240676d61696c2e636f6d0000000000000000000000000090506001600860008060009054906101000a900473ffffffffffffffffffffffffffffffffffffffff1673ffffffffffffffffffffffffffffffffffffffff1673ffffffffffffffffffffffffffffffffffffffff168152602001908152602001600020819055506001808190555060006005819055506200014a8162000194640100000000026401000000009004565b620001856000809054906101000a900473ffffffffffffffffffffffffffffffffffffffff1662000200640100000000026401000000009004565b600060048190555050620004e4565b6000602060ff16118015620001ad57506064602060ff16105b1515620001b957600080fd5b80600760003373ffffffffffffffffffffffffffffffffffffffff1673ffffffffffffffffffffffffffffffffffffffff1681526020019081526020016000208190555050565b6000600760008373ffffffffffffffffffffffffffffffffffffffff1673ffffffffffffffffffffffffffffffffffffffff16815260200190815260200160002050602060ff161115156200025457600080fd5b6000600960008373ffffffffffffffffffffffffffffffffffffffff1673ffffffffffffffffffffffffffffffffffffffff16815260200190815260200160002080549050148015620002e657506000600c60008373ffffffffffffffffffffffffffffffffffffffff1673ffffffffffffffffffffffffffffffffffffffff16815260200190815260200160002054145b1515620002f257600080fd5b600960008273ffffffffffffffffffffffffffffffffffffffff1673ffffffffffffffffffffffffffffffffffffffff1681526020019081526020016000206001908060018154018082558091505090600182039060005260206000200160009091929091909150555060036000815480929190600101919050555062000390600b42836200039364010000000002620054b4176401000000009004565b50565b60008360000160008373ffffffffffffffffffffffffffffffffffffffff1673ffffffffffffffffffffffffffffffffffffffff16815260200190815260200160002060030154141515620003e757600080fd5b818360000160008373ffffffffffffffffffffffffffffffffffffffff1673ffffffffffffffffffffffffffffffffffffffff16815260200190815260200160002060030181905550505050565b828054600181600116156101000203166002900490600052602060002090601f016020900481019282601f106200047857805160ff1916838001178555620004a9565b82800160010185558215620004a9579182015b82811115620004a85782518255916020019190600101906200048b565b5b509050620004b89190620004bc565b5090565b620004e191905b80821115620004dd576000816000905550600101620004c3565b5090565b90565b61572a80620004f46000396000f3fe60806040526004361061020f576000357c0100000000000000000000000000000000000000000000000000000000900463ffffffff168063011e8d6f1461021457806303ec423e146102fa5780630ae31f5e1461036957806312c98303146103bc57806315fbb0f9146104015780631785f53c146106ba5780633ccfd60b1461070b578063461173fa146107155780634b615e37146107665780634fa7353c146108425780635726eecc146108a75780635a68f5bb1461090c5780635ebd9ded14610bcf578063654fc83314610c1e5780636cc7e61914610c595780637039870614610cc85780637048027514610d665780637cb9cf5414610daa5780637f7b139314610dfb57806386ee6f3814610eaf5780638bc6976e14610f145780639026dee81461101757806390c599f41461107c57806396e8150a146110b7578063982efcfe146111315780639a70eef1146111965780639cfe42da146111ad578063bb2915fd146111fe578063bbb41e3e146112e4578063c339553014611353578063ca88510c146113b8578063d35c19fd14611407578063d3f8a24a14611432578063d450fbc9146114fa578063d93fabfa146115ae578063e00fe2eb146115f2578063e6807ca914611682578063e7fb74c7146116e7578063eaf7e32514611715578063eb91e65114611740578063f3052d2614611791578063f61c899a14611845578063ff7511ba14611880575b600080fd5b34801561022057600080fd5b506102e46004803603604081101561023757600080fd5b810190808035906020019064010000000081111561025457600080fd5b82018360208201111561026657600080fd5b8035906020019184600183028401116401000000008311171561028857600080fd5b91908080601f016020809104026020016040519081016040528093929190818152602001838380828437600081840152601f19601f8201169050808301925050505050505091929192908035906020019092919050505061195c565b6040518082815260200191505060405180910390f35b34801561030657600080fd5b506103536004803603604081101561031d57600080fd5b81019080803573ffffffffffffffffffffffffffffffffffffffff16906020019092919080359060200190929190505050611a65565b6040518082815260200191505060405180910390f35b34801561037557600080fd5b506103a26004803603602081101561038c57600080fd5b8101908080359060200190929190505050611b16565b604051808215151515815260200191505060405180910390f35b3480156103c857600080fd5b506103ff600480360360408110156103df57600080fd5b810190808035906020019092919080359060200190929190505050611b53565b005b34801561040d57600080fd5b506106a0600480360360c081101561042457600080fd5b810190808035906020019064010000000081111561044157600080fd5b82018360208201111561045357600080fd5b8035906020019184600183028401116401000000008311171561047557600080fd5b91908080601f016020809104026020016040519081016040528093929190818152602001838380828437600081840152601f19601f82011690508083019250505050505050919291929080359060200190929190803590602001906401000000008111156104e257600080fd5b8201836020820111156104f457600080fd5b8035906020019184600183028401116401000000008311171561051657600080fd5b91908080601f016020809104026020016040519081016040528093929190818152602001838380828437600081840152601f19601f820116905080830192505050505050509192919290803590602001909291908035906020019064010000000081111561058357600080fd5b82018360208201111561059557600080fd5b803590602001918460018302840111640100000000831117156105b757600080fd5b91908080601f016020809104026020016040519081016040528093929190818152602001838380828437600081840152601f19601f8201169050808301925050505050505091929192908035906020019064010000000081111561061a57600080fd5b82018360208201111561062c57600080fd5b8035906020019184600183028401116401000000008311171561064e57600080fd5b91908080601f016020809104026020016040519081016040528093929190818152602001838380828437600081840152601f19601f820116905080830192505050505050509192919290505050611d4b565b604051808215151515815260200191505060405180910390f35b3480156106c657600080fd5b50610709600480360360208110156106dd57600080fd5b81019080803573ffffffffffffffffffffffffffffffffffffffff169060200190929190505050612301565b005b610713612406565b005b34801561072157600080fd5b506107646004803603606081101561073857600080fd5b8101908080359060200190929190803515159060200190929190803590602001909291905050506124e3565b005b34801561077257600080fd5b5061082c6004803603602081101561078957600080fd5b81019080803590602001906401000000008111156107a657600080fd5b8201836020820111156107b857600080fd5b803590602001918460018302840111640100000000831117156107da57600080fd5b91908080601f016020809104026020016040519081016040528093929190818152602001838380828437600081840152601f19601f8201169050808301925050505050505091929192905050506127ca565b6040518082815260200191505060405180910390f35b34801561084e57600080fd5b506108916004803603602081101561086557600080fd5b81019080803573ffffffffffffffffffffffffffffffffffffffff169060200190929190505050612842565b6040518082815260200191505060405180910390f35b3480156108b357600080fd5b506108f6600480360360208110156108ca57600080fd5b81019080803573ffffffffffffffffffffffffffffffffffffffff16906020019092919050505061288b565b6040518082815260200191505060405180910390f35b34801561091857600080fd5b50610bb5600480360360e081101561092f57600080fd5b810190808035906020019064010000000081111561094c57600080fd5b82018360208201111561095e57600080fd5b8035906020019184600183028401116401000000008311171561098057600080fd5b91908080601f016020809104026020016040519081016040528093929190818152602001838380828437600081840152601f19601f82011690508083019250505050505050919291929080359060200190929190803590602001906401000000008111156109ed57600080fd5b8201836020820111156109ff57600080fd5b80359060200191846001830284011164010000000083111715610a2157600080fd5b91908080601f016020809104026020016040519081016040528093929190818152602001838380828437600081840152601f19601f8201169050808301925050505050505091929192908035906020019092919080359060200190640100000000811115610a8e57600080fd5b820183602082011115610aa057600080fd5b80359060200191846001830284011164010000000083111715610ac257600080fd5b91908080601f016020809104026020016040519081016040528093929190818152602001838380828437600081840152601f19601f8201169050808301925050505050505091929192908035906020019092919080359060200190640100000000811115610b2f57600080fd5b820183602082011115610b4157600080fd5b80359060200191846001830284011164010000000083111715610b6357600080fd5b91908080601f016020809104026020016040519081016040528093929190818152602001838380828437600081840152601f19601f8201169050808301925050505050505091929192905050506128d7565b604051808215151515815260200191505060405180910390f35b348015610bdb57600080fd5b50610c0860048036036020811015610bf257600080fd5b8101908080359060200190929190505050612d08565b6040518082815260200191505060405180910390f35b348015610c2a57600080fd5b50610c5760048036036020811015610c4157600080fd5b8101908080359060200190929190505050612d39565b005b348015610c6557600080fd5b50610cb260048036036040811015610c7c57600080fd5b81019080803573ffffffffffffffffffffffffffffffffffffffff16906020019092919080359060200190929190505050612e1b565b6040518082815260200191505060405180910390f35b348015610cd457600080fd5b50610d0160048036036020811015610ceb57600080fd5b8101908080359060200190929190505050612ecc565b604051808573ffffffffffffffffffffffffffffffffffffffff1673ffffffffffffffffffffffffffffffffffffffff168152602001846003811115610d4357fe5b60ff16815260200183815260200182815260200194505050505060405180910390f35b610da860048036036020811015610d7c57600080fd5b81019080803573ffffffffffffffffffffffffffffffffffffffff169060200190929190505050612fa5565b005b348015610db657600080fd5b50610df960048036036020811015610dcd57600080fd5b81019080803573ffffffffffffffffffffffffffffffffffffffff1690602001909291905050506130e6565b005b348015610e0757600080fd5b50610e3460048036036020811015610e1e57600080fd5b8101908080359060200190929190505050613219565b6040518080602001828103825283818151815260200191508051906020019080838360005b83811015610e74578082015181840152602081019050610e59565b50505050905090810190601f168015610ea15780820380516001836020036101000a031916815260200191505b509250505060405180910390f35b348015610ebb57600080fd5b50610efe60048036036020811015610ed257600080fd5b81019080803573ffffffffffffffffffffffffffffffffffffffff1690602001909291905050506132e2565b6040518082815260200191505060405180910390f35b348015610f2057600080fd5b50610f4d60048036036020811015610f3757600080fd5b810190808035906020019092919050505061332e565b6040518080602001858152602001846003811115610f6757fe5b60ff1681526020018373ffffffffffffffffffffffffffffffffffffffff1673ffffffffffffffffffffffffffffffffffffffff168152602001828103825286818151815260200191508051906020019080838360005b83811015610fd9578082015181840152602081019050610fbe565b50505050905090810190601f1680156110065780820380516001836020036101000a031916815260200191505b509550505050505060405180910390f35b34801561102357600080fd5b506110666004803603602081101561103a57600080fd5b81019080803573ffffffffffffffffffffffffffffffffffffffff16906020019092919050505061347c565b6040518082815260200191505060405180910390f35b34801561108857600080fd5b506110b56004803603602081101561109f57600080fd5b81019080803590602001909291905050506134c5565b005b3480156110c357600080fd5b50611106600480360360208110156110da57600080fd5b81019080803573ffffffffffffffffffffffffffffffffffffffff16906020019092919050505061352f565b6040518085815260200184815260200183815260200182815260200194505050505060405180910390f35b34801561113d57600080fd5b506111806004803603602081101561115457600080fd5b81019080803573ffffffffffffffffffffffffffffffffffffffff16906020019092919050505061363d565b6040518082815260200191505060405180910390f35b3480156111a257600080fd5b506111ab6136e0565b005b3480156111b957600080fd5b506111fc600480360360208110156111d057600080fd5b81019080803573ffffffffffffffffffffffffffffffffffffffff16906020019092919050505061375a565b005b34801561120a57600080fd5b506112ce6004803603604081101561122157600080fd5b810190808035906020019064010000000081111561123e57600080fd5b82018360208201111561125057600080fd5b8035906020019184600183028401116401000000008311171561127257600080fd5b91908080601f016020809104026020016040519081016040528093929190818152602001838380828437600081840152601f19601f82011690508083019250505050505050919291929080359060200190929190505050613850565b6040518082815260200191505060405180910390f35b3480156112f057600080fd5b5061133d6004803603604081101561130757600080fd5b81019080803573ffffffffffffffffffffffffffffffffffffffff16906020019092919080359060200190929190505050613959565b6040518082815260200191505060405180910390f35b34801561135f57600080fd5b506113a26004803603602081101561137657600080fd5b81019080803573ffffffffffffffffffffffffffffffffffffffff169060200190929190505050613a0a565b6040518082815260200191505060405180910390f35b3480156113c457600080fd5b506113f1600480360360208110156113db57600080fd5b8101908080359060200190929190505050613abf565b6040518082815260200191505060405180910390f35b34801561141357600080fd5b5061141c613af5565b6040518082815260200191505060405180910390f35b34801561143e57600080fd5b506114f86004803603602081101561145557600080fd5b810190808035906020019064010000000081111561147257600080fd5b82018360208201111561148457600080fd5b803590602001918460018302840111640100000000831117156114a657600080fd5b91908080601f016020809104026020016040519081016040528093929190818152602001838380828437600081840152601f19601f820116905080830192505050505050509192919290505050613b02565b005b34801561150657600080fd5b506115336004803603602081101561151d57600080fd5b8101908080359060200190929190505050613b77565b6040518080602001828103825283818151815260200191508051906020019080838360005b83811015611573578082015181840152602081019050611558565b50505050905090810190601f1680156115a05780820380516001836020036101000a031916815260200191505b509250505060405180910390f35b6115f0600480360360208110156115c457600080fd5b81019080803573ffffffffffffffffffffffffffffffffffffffff169060200190929190505050613c40565b005b3480156115fe57600080fd5b50611607613dba565b6040518080602001828103825283818151815260200191508051906020019080838360005b8381101561164757808201518184015260208101905061162c565b50505050905090810190601f1680156116745780820380516001836020036101000a031916815260200191505b509250505060405180910390f35b34801561168e57600080fd5b506116d1600480360360208110156116a557600080fd5b81019080803573ffffffffffffffffffffffffffffffffffffffff169060200190929190505050613e5c565b6040518082815260200191505060405180910390f35b611713600480360360208110156116fd57600080fd5b8101908080359060200190929190505050613ea5565b005b34801561172157600080fd5b5061172a61434f565b6040518082815260200191505060405180910390f35b34801561174c57600080fd5b5061178f6004803603602081101561176357600080fd5b81019080803573ffffffffffffffffffffffffffffffffffffffff169060200190929190505050614359565b005b34801561179d57600080fd5b506117ca600480360360208110156117b457600080fd5b8101908080359060200190929190505050614450565b6040518080602001828103825283818151815260200191508051906020019080838360005b8381101561180a5780820151818401526020810190506117ef565b50505050905090810190601f1680156118375780820380516001836020036101000a031916815260200191505b509250505060405180910390f35b34801561185157600080fd5b5061187e6004803603602081101561186857600080fd5b8101908080359060200190929190505050614519565b005b34801561188c57600080fd5b50611946600480360360208110156118a357600080fd5b81019080803590602001906401000000008111156118c057600080fd5b8201836020820111156118d257600080fd5b803590602001918460018302840111640100000000831117156118f457600080fd5b91908080601f016020809104026020016040519081016040528093929190818152602001838380828437600081840152601f19601f820116905080830192505050505050509192919290505050614711565b6040518082815260200191505060405180910390f35b6000816010846040518082805190602001908083835b6020831015156119975780518252602082019150602081019050602083039250611972565b6001836020036101000a0380198251168184511680821785525050505050509050019150509081526020016040518091039020805490501115156119da57600080fd5b6010836040518082805190602001908083835b602083101515611a1257805182526020820191506020810190506020830392506119ed565b6001836020036101000a038019825116818451168082178552505050505050905001915050908152602001604051809103902082815481101515611a5257fe5b9060005260206000200154905092915050565b6000600a60008473ffffffffffffffffffffffffffffffffffffffff1673ffffffffffffffffffffffffffffffffffffffff1681526020019081526020016000208054905082101515611ab757600080fd5b600a60008473ffffffffffffffffffffffffffffffffffffffff1673ffffffffffffffffffffffffffffffffffffffff16815260200190815260200160002082815481101515611b0357fe5b9060005260206000200154905092915050565b600080601183815481101515611b2857fe5b9060005260206000209060030201600201541415611b495760019050611b4e565b600090505b919050565b601182815481101515611b6257fe5b906000526020600020906003020160010160009054906101000a900473ffffffffffffffffffffffffffffffffffffffff168073ffffffffffffffffffffffffffffffffffffffff163373ffffffffffffffffffffffffffffffffffffffff16141515611bce57600080fd5b601183815481101515611bdd57fe5b906000526020600020906003020160806040519081016040529081600082015481526020016001820160009054906101000a900473ffffffffffffffffffffffffffffffffffffffff1673ffffffffffffffffffffffffffffffffffffffff1673ffffffffffffffffffffffffffffffffffffffff1681526020016001820160149054906101000a900460ff166003811115611c7557fe5b6003811115611c8057fe5b815260200160028201548152505060008160600151141515611ca157600080fd5b60018310158015611cb3575060648311155b1515611cbe57600080fd5b82601185815481101515611cce57fe5b906000526020600020906003020160020181905550611d45600b600d6000601188815481101515611cfb57fe5b906000526020600020906003020160000154815260200190815260200160002060070160019054906101000a900473ffffffffffffffffffffffffffffffffffffffff1685614789565b50505050565b60006001600960003373ffffffffffffffffffffffffffffffffffffffff1673ffffffffffffffffffffffffffffffffffffffff1681526020019081526020016000206000815481101515611d9c57fe5b9060005260206000200154141515611db357600080fd5b6000600c60003373ffffffffffffffffffffffffffffffffffffffff1673ffffffffffffffffffffffffffffffffffffffff16815260200190815260200160002054141515611e0157600080fd5b600660009054906101000a900460ff1615156122f757600084118015611e275750600086115b1515611e3257600080fd5b6101a0604051908101604052806005548152602001888152602001848152602001838152602001600f856040518082805190602001908083835b602083101515611e915780518252602082019150602081019050602083039250611e6c565b6001836020036101000a03801982511681845116808217855250505050505090500191505090815260200160405180910390208054905081526020016010846040518082805190602001908083835b602083101515611f055780518252602082019150602081019050602083039250611ee0565b6001836020036101000a038019825116818451168082178552505050505050905001915050908152602001604051809103902080549050815260200187815260200160006003811115611f5457fe5b81526020013373ffffffffffffffffffffffffffffffffffffffff168152602001858152602001600e805490508152602001601360003373ffffffffffffffffffffffffffffffffffffffff1673ffffffffffffffffffffffffffffffffffffffff16815260200190815260200160002080549050815260200186815250600d6000600554815260200190815260200160002060008201518160000155602082015181600101908051906020019061200d9291906155ad565b50604082015181600201908051906020019061202a9291906155ad565b5060608201518160030190805190602001906120479291906155ad565b506080820151816004015560a0820151816005015560c0820151816006015560e08201518160070160006101000a81548160ff0219169083600381111561208a57fe5b02179055506101008201518160070160016101000a81548173ffffffffffffffffffffffffffffffffffffffff021916908373ffffffffffffffffffffffffffffffffffffffff1602179055506101208201518160080155610140820151816009015561016082015181600a015561018082015181600b0190805190602001906121159291906155ad565b50905050600f836040518082805190602001908083835b602083101515612151578051825260208201915060208101905060208303925061212c565b6001836020036101000a038019825116818451168082178552505050505050905001915050908152602001604051809103902060055490806001815401808255809150509060018203906000526020600020016000909192909190915055506010826040518082805190602001908083835b6020831015156121e857805182526020820191506020810190506020830392506121c3565b6001836020036101000a03801982511681845116808217855250505050505090500191505090815260200160405180910390206005549080600181540180825580915050906001820390600052602060002001600090919290919091505550601360003373ffffffffffffffffffffffffffffffffffffffff1673ffffffffffffffffffffffffffffffffffffffff1681526020019081526020016000206005549080600181540180825580915050906001820390600052602060002001600090919290919091505550600e6005549080600181540180825580915050906001820390600052602060002001600090919290919091505550600560008154809291906001019190505550600190505b9695505050505050565b6001600860003373ffffffffffffffffffffffffffffffffffffffff1673ffffffffffffffffffffffffffffffffffffffff1681526020019081526020016000205414151561234f57600080fd5b6001600860008373ffffffffffffffffffffffffffffffffffffffff1673ffffffffffffffffffffffffffffffffffffffff168152602001908152602001600020541480156123a057506000600154115b15156123ab57600080fd5b6000600860008373ffffffffffffffffffffffffffffffffffffffff1673ffffffffffffffffffffffffffffffffffffffff168152602001908152602001600020819055506001600081548092919060019003919050555050565b6000601260003373ffffffffffffffffffffffffffffffffffffffff1673ffffffffffffffffffffffffffffffffffffffff16815260200190815260200160002054905060008111156124e0576000601260003373ffffffffffffffffffffffffffffffffffffffff1673ffffffffffffffffffffffffffffffffffffffff168152602001908152602001600020819055503373ffffffffffffffffffffffffffffffffffffffff166108fc829081150290604051600060405180830381858888f193505050501580156124de573d6000803e3d6000fd5b505b50565b6011838154811015156124f257fe5b906000526020600020906003020160806040519081016040529081600082015481526020016001820160009054906101000a900473ffffffffffffffffffffffffffffffffffffffff1673ffffffffffffffffffffffffffffffffffffffff1673ffffffffffffffffffffffffffffffffffffffff1681526020016001820160149054906101000a900460ff16600381111561258a57fe5b600381111561259557fe5b8152602001600282015481525050600160038111156125b057fe5b816040015160038111156125c057fe5b14806125e65750600260038111156125d457fe5b816040015160038111156125e457fe5b145b15156125f157600080fd5b60118481548110151561260057fe5b906000526020600020906003020160010160009054906101000a900473ffffffffffffffffffffffffffffffffffffffff168073ffffffffffffffffffffffffffffffffffffffff163373ffffffffffffffffffffffffffffffffffffffff1614151561266c57600080fd5b600360118681548110151561267d57fe5b906000526020600020906003020160010160146101000a81548160ff021916908360038111156126a957fe5b02179055507fa8142743f8f70a4c26f3691cf4ed59718381fb2f18070ec52be1f1022d855557856040518082815260200191505060405180910390a1600115158415151480156127195750600060118681548110151561270557fe5b906000526020600020906003020160020154145b156127c35760018310158015612730575060648311155b151561273b57600080fd5b8260118681548110151561274b57fe5b9060005260206000209060030201600201819055506127c2600b600d600060118981548110151561277857fe5b906000526020600020906003020160000154815260200190815260200160002060070160019054906101000a900473ffffffffffffffffffffffffffffffffffffffff1685614789565b5b5050505050565b60006010826040518082805190602001908083835b60208310151561280457805182526020820191506020810190506020830392506127df565b6001836020036101000a0380198251168184511680821785525050505050509050019150509081526020016040518091039020805490509050919050565b6000600760008373ffffffffffffffffffffffffffffffffffffffff1673ffffffffffffffffffffffffffffffffffffffff168152602001908152602001600020549050919050565b6000600a60008373ffffffffffffffffffffffffffffffffffffffff1673ffffffffffffffffffffffffffffffffffffffff168152602001908152602001600020805490509050919050565b60006001600960003373ffffffffffffffffffffffffffffffffffffffff1673ffffffffffffffffffffffffffffffffffffffff168152602001908152602001600020600081548110151561292857fe5b906000526020600020015414151561293f57600080fd5b6000600c60003373ffffffffffffffffffffffffffffffffffffffff1673ffffffffffffffffffffffffffffffffffffffff1681526020019081526020016000205414151561298d57600080fd5b600660009054906101000a900460ff161515612cfd576000851180156129b35750600087115b15156129be57600080fd5b600d600084815260200190815260200160002060070160019054906101000a900473ffffffffffffffffffffffffffffffffffffffff1673ffffffffffffffffffffffffffffffffffffffff163373ffffffffffffffffffffffffffffffffffffffff16141515612a2e57600080fd5b6101a0604051908101604052806005548152602001898152602001858152602001838152602001600f866040518082805190602001908083835b602083101515612a8d5780518252602082019150602081019050602083039250612a68565b6001836020036101000a03801982511681845116808217855250505050505090500191505090815260200160405180910390208054905081526020016010846040518082805190602001908083835b602083101515612b015780518252602082019150602081019050602083039250612adc565b6001836020036101000a038019825116818451168082178552505050505050905001915050908152602001604051809103902080549050815260200188815260200160006003811115612b5057fe5b81526020013373ffffffffffffffffffffffffffffffffffffffff168152602001868152602001600d6000868152602001908152602001600020600901548152602001600d6000868152602001908152602001600020600a0154815260200187815250600d6000858152602001908152602001600020600082015181600001556020820151816001019080519060200190612bec9291906155ad565b506040820151816002019080519060200190612c099291906155ad565b506060820151816003019080519060200190612c269291906155ad565b506080820151816004015560a0820151816005015560c0820151816006015560e08201518160070160006101000a81548160ff02191690836003811115612c6957fe5b02179055506101008201518160070160016101000a81548173ffffffffffffffffffffffffffffffffffffffff021916908373ffffffffffffffffffffffffffffffffffffffff1602179055506101208201518160080155610140820151816009015561016082015181600a015561018082015181600b019080519060200190612cf49291906155ad565b50905050600190505b979650505050505050565b60006005548211151515612d1b57600080fd5b600d6000838152602001908152602001600020600801549050919050565b600d600082815260200190815260200160002060070160009054906101000a900460ff1660006003811115612d6a57fe5b816003811115612d7657fe5b141515612d8257600080fd5b600d600083815260200190815260200160002060070160019054906101000a900473ffffffffffffffffffffffffffffffffffffffff1673ffffffffffffffffffffffffffffffffffffffff163373ffffffffffffffffffffffffffffffffffffffff16141515612df257600080fd5b6000600d600084815260200190815260200160002060080181905550612e17826148d1565b5050565b6000601360008473ffffffffffffffffffffffffffffffffffffffff1673ffffffffffffffffffffffffffffffffffffffff1681526020019081526020016000208054905082101515612e6d57600080fd5b601360008473ffffffffffffffffffffffffffffffffffffffff1673ffffffffffffffffffffffffffffffffffffffff16815260200190815260200160002082815481101515612eb957fe5b9060005260206000200154905092915050565b60008060008084601180549050111515612ee557600080fd5b601185815481101515612ef457fe5b906000526020600020906003020160010160009054906101000a900473ffffffffffffffffffffffffffffffffffffffff16601186815481101515612f3557fe5b906000526020600020906003020160010160149054906101000a900460ff16601187815481101515612f6357fe5b906000526020600020906003020160000154601188815481101515612f8457fe5b90600052602060002090600302016002015493509350935093509193509193565b6001600860003373ffffffffffffffffffffffffffffffffffffffff1673ffffffffffffffffffffffffffffffffffffffff16815260200190815260200160002054141515612ff357600080fd5b6000600860008373ffffffffffffffffffffffffffffffffffffffff1673ffffffffffffffffffffffffffffffffffffffff1681526020019081526020016000205414801561308157506000600c60008373ffffffffffffffffffffffffffffffffffffffff1673ffffffffffffffffffffffffffffffffffffffff16815260200190815260200160002054145b151561308c57600080fd5b6001600860008373ffffffffffffffffffffffffffffffffffffffff1673ffffffffffffffffffffffffffffffffffffffff1681526020019081526020016000208190555060016000815480929190600101919050555050565b6001600860003373ffffffffffffffffffffffffffffffffffffffff1673ffffffffffffffffffffffffffffffffffffffff1681526020019081526020016000205414151561313457600080fd5b6001600960008373ffffffffffffffffffffffffffffffffffffffff1673ffffffffffffffffffffffffffffffffffffffff168152602001908152602001600020600081548110151561318357fe5b906000526020600020015414801561319d57506000600354115b15156131a857600080fd5b6001600960008373ffffffffffffffffffffffffffffffffffffffff1673ffffffffffffffffffffffffffffffffffffffff16815260200190815260200160002060018154811015156131f757fe5b9060005260206000205050506003600081548092919060019003919050555050565b6060600554821115151561322c57600080fd5b600d60008381526020019081526020016000206003018054600181600116156101000203166002900480601f0160208091040260200160405190810160405280929190818152602001828054600181600116156101000203166002900480156132d65780601f106132ab576101008083540402835291602001916132d6565b820191906000526020600020905b8154815290600101906020018083116132b957829003601f168201915b50505050509050919050565b6000601360008373ffffffffffffffffffffffffffffffffffffffff1673ffffffffffffffffffffffffffffffffffffffff168152602001908152602001600020805490509050919050565b60606000806000600554851115151561334657600080fd5b600d6000868152602001908152602001600020600101600d600087815260200190815260200160002060060154600d600088815260200190815260200160002060070160009054906101000a900460ff16600d600089815260200190815260200160002060070160019054906101000a900473ffffffffffffffffffffffffffffffffffffffff16838054600181600116156101000203166002900480601f0160208091040260200160405190810160405280929190818152602001828054600181600116156101000203166002900480156134635780601f1061343857610100808354040283529160200191613463565b820191906000526020600020905b81548152906001019060200180831161344657829003601f168201915b5050505050935080905093509350935093509193509193565b6000600860008373ffffffffffffffffffffffffffffffffffffffff1673ffffffffffffffffffffffffffffffffffffffff168152602001908152602001600020549050919050565b6000602060ff161180156134dd57506064602060ff16105b15156134e857600080fd5b80600760003373ffffffffffffffffffffffffffffffffffffffff1673ffffffffffffffffffffffffffffffffffffffff1681526020019081526020016000208190555050565b60008060008073__Lib___________________________________63b06104bb600b876040518363ffffffff167c0100000000000000000000000000000000000000000000000000000000028152600401808381526020018273ffffffffffffffffffffffffffffffffffffffff1673ffffffffffffffffffffffffffffffffffffffff1681526020019250505060806040518083038186803b1580156135d557600080fd5b505af41580156135e9573d6000803e3d6000fd5b505050506040513d60808110156135ff57600080fd5b810190808051906020019092919080519060200190929190805190602001909291908051906020019092919050505093509350935093509193509193565b600080600960008473ffffffffffffffffffffffffffffffffffffffff1673ffffffffffffffffffffffffffffffffffffffff16815260200190815260200160002080549050141561369257600090506136db565b6001600960008473ffffffffffffffffffffffffffffffffffffffff1673ffffffffffffffffffffffffffffffffffffffff168152602001908152602001600020805490500390505b919050565b6001600860003373ffffffffffffffffffffffffffffffffffffffff1673ffffffffffffffffffffffffffffffffffffffff1681526020019081526020016000205414151561372e57600080fd5b600660009054906101000a900460ff1615600660006101000a81548160ff021916908315150217905550565b6001600860003373ffffffffffffffffffffffffffffffffffffffff1673ffffffffffffffffffffffffffffffffffffffff168152602001908152602001600020541415156137a857600080fd5b6000600c60008373ffffffffffffffffffffffffffffffffffffffff1673ffffffffffffffffffffffffffffffffffffffff168152602001908152602001600020541415156137f657600080fd5b6001600c60008373ffffffffffffffffffffffffffffffffffffffff1673ffffffffffffffffffffffffffffffffffffffff1681526020019081526020016000208190555060046000815480929190600101919050555050565b600081600f846040518082805190602001908083835b60208310151561388b5780518252602082019150602081019050602083039250613866565b6001836020036101000a0380198251168184511680821785525050505050509050019150509081526020016040518091039020805490501115156138ce57600080fd5b600f836040518082805190602001908083835b60208310151561390657805182526020820191506020810190506020830392506138e1565b6001836020036101000a03801982511681845116808217855250505050505090500191505090815260200160405180910390208281548110151561394657fe5b9060005260206000200154905092915050565b6000600960008473ffffffffffffffffffffffffffffffffffffffff1673ffffffffffffffffffffffffffffffffffffffff16815260200190815260200160002080549050821015156139ab57600080fd5b600960008473ffffffffffffffffffffffffffffffffffffffff1673ffffffffffffffffffffffffffffffffffffffff168152602001908152602001600020828154811015156139f757fe5b9060005260206000200154905092915050565b600080600960008473ffffffffffffffffffffffffffffffffffffffff1673ffffffffffffffffffffffffffffffffffffffff168152602001908152602001600020805490501415613a5f5760009050613aba565b600960008373ffffffffffffffffffffffffffffffffffffffff1673ffffffffffffffffffffffffffffffffffffffff1681526020019081526020016000206000815481101515613aac57fe5b906000526020600020015490505b919050565b600081600e80549050111515613ad457600080fd5b600e82815481101515613ae357fe5b90600052602060002001549050919050565b6000600e80549050905090565b6000809054906101000a900473ffffffffffffffffffffffffffffffffffffffff1673ffffffffffffffffffffffffffffffffffffffff163373ffffffffffffffffffffffffffffffffffffffff16141515613b5d57600080fd5b8060029080519060200190613b7392919061562d565b5050565b60606005548211151515613b8a57600080fd5b600d6000838152602001908152602001600020600b018054600181600116156101000203166002900480601f016020809104026020016040519081016040528092919081815260200182805460018160011615610100020316600290048015613c345780601f10613c0957610100808354040283529160200191613c34565b820191906000526020600020905b815481529060010190602001808311613c1757829003601f168201915b50505050509050919050565b6000600760008373ffffffffffffffffffffffffffffffffffffffff1673ffffffffffffffffffffffffffffffffffffffff16815260200190815260200160002050602060ff16111515613c9357600080fd5b6000600960008373ffffffffffffffffffffffffffffffffffffffff1673ffffffffffffffffffffffffffffffffffffffff16815260200190815260200160002080549050148015613d2457506000600c60008373ffffffffffffffffffffffffffffffffffffffff1673ffffffffffffffffffffffffffffffffffffffff16815260200190815260200160002054145b1515613d2f57600080fd5b600960008273ffffffffffffffffffffffffffffffffffffffff1673ffffffffffffffffffffffffffffffffffffffff16815260200190815260200160002060019080600181540180825580915050906001820390600052602060002001600090919290919091505550600360008154809291906001019190505550613db7600b42836154b4565b50565b606060028054600181600116156101000203166002900480601f016020809104026020016040519081016040528092919081815260200182805460018160011615610100020316600290048015613e525780601f10613e2757610100808354040283529160200191613e52565b820191906000526020600020905b815481529060010190602001808311613e3557829003601f168201915b5050505050905090565b6000600c60008373ffffffffffffffffffffffffffffffffffffffff1673ffffffffffffffffffffffffffffffffffffffff168152602001908152602001600020549050919050565b6000600c60003373ffffffffffffffffffffffffffffffffffffffff1673ffffffffffffffffffffffffffffffffffffffff16815260200190815260200160002054141515613ef357600080fd5b600d600082815260200190815260200160002060070160009054906101000a900460ff1660006003811115613f2457fe5b816003811115613f3057fe5b141515613f3c57600080fd5b600d600083815260200190815260200160002060060154348111151515613f6257600080fd5b600660009054906101000a900460ff16151561434a57600d600084815260200190815260200160002060070160019054906101000a900473ffffffffffffffffffffffffffffffffffffffff1673ffffffffffffffffffffffffffffffffffffffff166108fc600d6000868152602001908152602001600020600601549081150290604051600060405180830381858888f1935050505015801561400a573d6000803e3d6000fd5b50600d600084815260200190815260200160002060080160008154809291906001900391905055506001600d600085815260200190815260200160002060080154101561405b5761405a836148d1565b5b60096000600d600086815260200190815260200160002060070160019054906101000a900473ffffffffffffffffffffffffffffffffffffffff1673ffffffffffffffffffffffffffffffffffffffff1673ffffffffffffffffffffffffffffffffffffffff1681526020019081526020016000206011805490509080600181540180825580915050906001820390600052602060002001600090919290919091505550600a60003373ffffffffffffffffffffffffffffffffffffffff1673ffffffffffffffffffffffffffffffffffffffff168152602001908152602001600020601180549050908060018154018082558091505090600182039060005260206000200160009091929091909150555060116080604051908101604052808581526020013373ffffffffffffffffffffffffffffffffffffffff168152602001600160038111156141aa57fe5b81526020016000815250908060018154018082558091505090600182039060005260206000209060030201600090919290919091506000820151816000015560208201518160010160006101000a81548173ffffffffffffffffffffffffffffffffffffffff021916908373ffffffffffffffffffffffffffffffffffffffff16021790555060408201518160010160146101000a81548160ff0219169083600381111561425457fe5b0217905550606082015181600201555050507f92f64ca637d023f354075a4be751b169c1a8a9ccb6d33cdd0cb3520543995727836040518082815260200191505060405180910390a16142de600b600d600086815260200190815260200160002060070160019054906101000a900473ffffffffffffffffffffffffffffffffffffffff16615555565b6000600d6000858152602001908152602001600020600601549050600081340390503373ffffffffffffffffffffffffffffffffffffffff166108fc829081150290604051600060405180830381858888f19350505050158015614346573d6000803e3d6000fd5b5050505b505050565b6000600554905090565b6001600860003373ffffffffffffffffffffffffffffffffffffffff1673ffffffffffffffffffffffffffffffffffffffff168152602001908152602001600020541415156143a757600080fd5b6001600c60008373ffffffffffffffffffffffffffffffffffffffff1673ffffffffffffffffffffffffffffffffffffffff168152602001908152602001600020541415156143f557600080fd5b6000600c60008373ffffffffffffffffffffffffffffffffffffffff1673ffffffffffffffffffffffffffffffffffffffff168152602001908152602001600020819055506004600081548092919060019003919050555050565b6060600554821115151561446357600080fd5b600d60008381526020019081526020016000206002018054600181600116156101000203166002900480601f01602080910402602001604051908101604052809291908181526020018280546001816001161561010002031660029004801561450d5780601f106144e25761010080835404028352916020019161450d565b820191906000526020600020905b8154815290600101906020018083116144f057829003601f168201915b50505050509050919050565b60118181548110151561452857fe5b906000526020600020906003020160806040519081016040529081600082015481526020016001820160009054906101000a900473ffffffffffffffffffffffffffffffffffffffff1673ffffffffffffffffffffffffffffffffffffffff1673ffffffffffffffffffffffffffffffffffffffff1681526020016001820160149054906101000a900460ff1660038111156145c057fe5b60038111156145cb57fe5b8152602001600282015481525050600160038111156145e657fe5b816040015160038111156145f657fe5b14151561460257600080fd5b600d600060118481548110151561461557fe5b906000526020600020906003020160000154815260200190815260200160002060070160019054906101000a900473ffffffffffffffffffffffffffffffffffffffff168073ffffffffffffffffffffffffffffffffffffffff163373ffffffffffffffffffffffffffffffffffffffff1614151561469357600080fd5b60026011848154811015156146a457fe5b906000526020600020906003020160010160146101000a81548160ff021916908360038111156146d057fe5b02179055507ff00b9a5725b80c54016f42114f6ed7792d22eecb116011c4afac29c57bef6c95836040518082815260200191505060405180910390a1505050565b6000600f826040518082805190602001908083835b60208310151561474b5780518252602082019150602081019050602083039250614726565b6001836020036101000a0380198251168184511680821785525050505050509050019150509081526020016040518091039020805490509050919050565b60008360000160008473ffffffffffffffffffffffffffffffffffffffff1673ffffffffffffffffffffffffffffffffffffffff16815260200190815260200160002060000154905060008460000160008573ffffffffffffffffffffffffffffffffffffffff1673ffffffffffffffffffffffffffffffffffffffff16815260200190815260200160002060010154905060018101838284020181151561482d57fe5b048560000160008673ffffffffffffffffffffffffffffffffffffffff1673ffffffffffffffffffffffffffffffffffffffff168152602001908152602001600020600001819055508460000160008573ffffffffffffffffffffffffffffffffffffffff1673ffffffffffffffffffffffffffffffffffffffff168152602001908152602001600020600101600081548092919060010191905055505050505050565b6000600d6000838152602001908152602001600020600901549050600e80549050811015156148ff57600080fd5b600e6001600e805490500381548110151561491657fe5b9060005260206000200154600e8281548110151561493057fe5b9060005260206000200181905550600e6001600e805490500381548110151561495557fe5b9060005260206000200160009055600e80548091906001900361497891906156ad565b50600d60008381526020019081526020016000206004015490506060600d60008481526020019081526020016000206002018054600181600116156101000203166002900480601f016020809104026020016040519081016040528092919081815260200182805460018160011615610100020316600290048015614a3e5780601f10614a1357610100808354040283529160200191614a3e565b820191906000526020600020905b815481529060010190602001808311614a2157829003601f168201915b50505050509050600f816040518082805190602001908083835b602083101515614a7d5780518252602082019150602081019050602083039250614a58565b6001836020036101000a03801982511681845116808217855250505050505090500191505090815260200160405180910390208054905082101515614ac157600080fd5b600f816040518082805190602001908083835b602083101515614af95780518252602082019150602081019050602083039250614ad4565b6001836020036101000a03801982511681845116808217855250505050505090500191505090815260200160405180910390206001600f836040518082805190602001908083835b602083101515614b665780518252602082019150602081019050602083039250614b41565b6001836020036101000a03801982511681845116808217855250505050505090500191505090815260200160405180910390208054905003815481101515614baa57fe5b9060005260206000200154600f826040518082805190602001908083835b602083101515614bed5780518252602082019150602081019050602083039250614bc8565b6001836020036101000a038019825116818451168082178552505050505050905001915050908152602001604051809103902083815481101515614c2d57fe5b9060005260206000200181905550600f816040518082805190602001908083835b602083101515614c735780518252602082019150602081019050602083039250614c4e565b6001836020036101000a03801982511681845116808217855250505050505090500191505090815260200160405180910390206001600f836040518082805190602001908083835b602083101515614ce05780518252602082019150602081019050602083039250614cbb565b6001836020036101000a03801982511681845116808217855250505050505090500191505090815260200160405180910390208054905003815481101515614d2457fe5b9060005260206000200160009055600f816040518082805190602001908083835b602083101515614d6a5780518252602082019150602081019050602083039250614d45565b6001836020036101000a0380198251168184511680821785525050505050509050019150509081526020016040518091039020805480919060019003614db091906156ad565b50600d6000848152602001908152602001600020600a015491506000600d600085815260200190815260200160002060070160019054906101000a900473ffffffffffffffffffffffffffffffffffffffff169050601360008273ffffffffffffffffffffffffffffffffffffffff1673ffffffffffffffffffffffffffffffffffffffff1681526020019081526020016000208054905083101515614e5557600080fd5b601360008273ffffffffffffffffffffffffffffffffffffffff1673ffffffffffffffffffffffffffffffffffffffff1681526020019081526020016000206001601360008473ffffffffffffffffffffffffffffffffffffffff1673ffffffffffffffffffffffffffffffffffffffff1681526020019081526020016000208054905003815481101515614ee657fe5b9060005260206000200154601360008373ffffffffffffffffffffffffffffffffffffffff1673ffffffffffffffffffffffffffffffffffffffff16815260200190815260200160002084815481101515614f3d57fe5b9060005260206000200181905550601360008273ffffffffffffffffffffffffffffffffffffffff1673ffffffffffffffffffffffffffffffffffffffff1681526020019081526020016000206001601360008473ffffffffffffffffffffffffffffffffffffffff1673ffffffffffffffffffffffffffffffffffffffff1681526020019081526020016000208054905003815481101515614fdc57fe5b9060005260206000200160009055601360008273ffffffffffffffffffffffffffffffffffffffff1673ffffffffffffffffffffffffffffffffffffffff16815260200190815260200160002080548091906001900361503c91906156ad565b50600d60008581526020019081526020016000206005015492506060600d60008681526020019081526020016000206003018054600181600116156101000203166002900480601f0160208091040260200160405190810160405280929190818152602001828054600181600116156101000203166002900480156151025780601f106150d757610100808354040283529160200191615102565b820191906000526020600020905b8154815290600101906020018083116150e557829003601f168201915b505050505090506010816040518082805190602001908083835b602083101515615141578051825260208201915060208101905060208303925061511c565b6001836020036101000a0380198251168184511680821785525050505050509050019150509081526020016040518091039020805490508410151561518557600080fd5b6010816040518082805190602001908083835b6020831015156151bd5780518252602082019150602081019050602083039250615198565b6001836020036101000a038019825116818451168082178552505050505050905001915050908152602001604051809103902060016010836040518082805190602001908083835b60208310151561522a5780518252602082019150602081019050602083039250615205565b6001836020036101000a0380198251168184511680821785525050505050509050019150509081526020016040518091039020805490500381548110151561526e57fe5b90600052602060002001546010826040518082805190602001908083835b6020831015156152b1578051825260208201915060208101905060208303925061528c565b6001836020036101000a0380198251168184511680821785525050505050509050019150509081526020016040518091039020858154811015156152f157fe5b90600052602060002001819055506010816040518082805190602001908083835b6020831015156153375780518252602082019150602081019050602083039250615312565b6001836020036101000a038019825116818451168082178552505050505050905001915050908152602001604051809103902060016010836040518082805190602001908083835b6020831015156153a4578051825260208201915060208101905060208303925061537f565b6001836020036101000a038019825116818451168082178552505050505050905001915050908152602001604051809103902080549050038154811015156153e857fe5b90600052602060002001600090556010816040518082805190602001908083835b60208310151561542e5780518252602082019150602081019050602083039250615409565b6001836020036101000a038019825116818451168082178552505050505050905001915050908152602001604051809103902080548091906001900361547491906156ad565b506001600d600087815260200190815260200160002060070160006101000a81548160ff021916908360038111156154a857fe5b02179055505050505050565b60008360000160008373ffffffffffffffffffffffffffffffffffffffff1673ffffffffffffffffffffffffffffffffffffffff1681526020019081526020016000206003015414151561550757600080fd5b818360000160008373ffffffffffffffffffffffffffffffffffffffff1673ffffffffffffffffffffffffffffffffffffffff16815260200190815260200160002060030181905550505050565b8160000160008273ffffffffffffffffffffffffffffffffffffffff1673ffffffffffffffffffffffffffffffffffffffff168152602001908152602001600020600201600081548092919060010191905055505050565b828054600181600116156101000203166002900490600052602060002090601f016020900481019282601f106155ee57805160ff191683800117855561561c565b8280016001018555821561561c579182015b8281111561561b578251825591602001919060010190615600565b5b50905061562991906156d9565b5090565b828054600181600116156101000203166002900490600052602060002090601f016020900481019282601f1061566e57805160ff191683800117855561569c565b8280016001018555821561569c579182015b8281111561569b578251825591602001919060010190615680565b5b5090506156a991906156d9565b5090565b8154818355818111156156d4578183600052602060002091820191016156d391906156d9565b5b505050565b6156fb91905b808211156156f75760008160009055506001016156df565b5090565b9056fea165627a7a7230582096086c3d43090e36e9811308f4b685c97a9c64fad1d2eaf77ab687d056d594ec0029",
  "source": "pragma solidity ^0.5.0;\n\nimport \"./FinalLibrary.sol\";\n\n/** Main contract for ethereum store **/\ncontract Final {\n  // State variables\n  address owner;\n  uint adminCount;\n  string ownerText;\n  uint sellerCount;\n  uint blacklistCount;\n  uint itemCount; // total number of items posted\n  uint constant minGasCost = 20000; //\n  uint constant MaxRating = 100;  //\n\n  // Flag for circuit breaker pattern\n  bool private stopped;\n\n  /** Start contract by defining owner and making him an admin**/\n  constructor() public {\n    stopped = false;\n    owner = msg.sender;\n    ownerText = \"\";\n    bytes32 ownerEmail = \"ethbazaar@gmail.com\";\n    admins [owner] = 1;  adminCount = 1;\n    itemCount = 0;\n    addEmail(ownerEmail);\n    addSeller(owner);\n    blacklistCount = 0;\n  }\n\n  // Make reader-friendly enum for state of a sale\n  enum State{ForSale, Sold, Shipped, Received}\n\n  // Events emitted when the state of a sale changes\n  event ForSale(uint itemNumber);\n  event Sold (uint itemNumber);\n  event Shipped(uint itemNumber);\n  event Received (uint itemNumber);\n\n  /** Only one item type\n  * reused for both sales and auctions\n  * to reduce complexity of code.\n  * Simplicity is prioritized to minimize\n  * possible security flaws\n  **/\n\n  struct Transaction{\n    uint itemIndex; // can get seller from here\n    address buyer; // March 31, 2019\n    State txState;\n    uint rating;\n  }\n\n  struct Item{\n    uint itemNumber;\n    string name;\n    string category;\n    string location;\n    uint catIndex;\n    uint locIndex;\n    uint price;\n    State state;\n    address payable seller;\n    uint itemQuantity;\n    uint indexInSaleTracker;\n    uint indexInUnsold;\n    string ipfsHash;\n  }\n\n//------------------------------------------------------------------------\n/** List all modifiers **/\n  /** Circuit Breaker Modifiers **/\n  modifier stopInEmergency { if (!stopped) _; }\n  modifier onlyInEmergency { if (stopped) _; }\n\n  /** Permission modifiers **/\n  modifier isOwner{require(msg.sender == owner);_;}\n  modifier isAdmin{require (admins[msg.sender]==1);_;}\n  modifier isSeller{require (sellers[msg.sender][0]==1);  _;  } // March 31, 2019\n  modifier isNotBlacklisted{require(blacklist[msg.sender] ==0); _;}\n\n  /** Verify sales have correct inputs **/\n  modifier verifyCaller (address _address) { require (msg.sender == _address); _;}\n  modifier isEnoughMoney(uint _price){require(_price <= msg.value); _;}\n\n  /** Verify correct item state **/\n  modifier isForSale(State _state){require(_state == State.ForSale); _;}\n  modifier isSold (Transaction memory TX) { require(TX.txState == State.Sold); _;}\n  modifier isSoldOrShipped(Transaction memory TX) { require(TX.txState == State.Sold || TX.txState == State.Shipped); _;}\n  modifier isShipped (Transaction memory TX) { require(TX.txState == State.Shipped); _;}\n  modifier isReceived (Transaction memory TX) { require(TX.txState == State.Received); _;}\n  modifier isNotRated (Transaction memory TX) {require (TX.rating == 0); _;}\n\n//------------------------------------------------------------------------\n  /** Circuit Breaker can be triggered by owner **/\n  function toggleStop() isAdmin public {\n      stopped = !stopped;\n  }\n\n  /** Total number of items that have ever been sold **/\n  function getNumItems() public view returns (uint){\n    return(itemCount);\n  }\n\n  /**Number of Active Items for sale  **/\n  function getNumActiveItems() public view returns (uint){\n    return(itemsForSale.length);\n  }\n\n  /** return requested index from itemsForSale **/\n  function getSaleIndex(uint n) public view returns (uint){\n    require (itemsForSale.length > n);\n    return itemsForSale[n];\n  }\n\n  /**Number of Active Items in a category **/\n  function getNumItemsInCat(string memory _cat) public view returns (uint){\n    return(categoryIndex[_cat].length);\n  }\n\n  /**Number of Active Items in a location **/ // April 2020\n  function getNumItemsInLoc(string memory _loc) public view returns (uint){\n    return(locationIndex[_loc].length);\n  }\n\n\n  /** return the array categoryIndex[cat][a, ..., n] so app can reference\n  *   items with getItemData(uint itemNumber)\n  * Unfortunately, solidity cannot return a dynamic array, so need to do the loop\n  * in javascript and call this view function to return values one iteration at a time\n  **/\n  function getCategoryIndex(string memory _cat, uint n) public view returns (uint){\n    require (categoryIndex[_cat].length > n);\n    return categoryIndex[_cat][n];\n  }\n\n  /* similar to getCategoryIndex - returns item from locIndex array */\n  function getLocationIndex(string memory _loc, uint n) public view returns (uint){\n    require (locationIndex[_loc].length > n);\n    return locationIndex[_loc][n];\n  }\n\n  /** Next several functions check and set permissions **/\n  /** verify whether address is an admin */\n  function checkAdmin (address addr) public view returns (uint){\n    return(admins[addr]);\n  }\n\n  /** verify whether an address is a seller*/\n  function checkSeller(address addr) public view returns (uint){\n    if (sellers[addr].length == 0){return 0;}\n    return(sellers[addr][0]);\n  }\n\n  /** verifies whether an address is blacklisted*/\n  function checkBlacklist(address addr) public view returns (uint){\n    return(blacklist[addr]);\n  }\n\n  /** add or remove an admin */\n  function addAdmin (address newAdmin) public payable isAdmin{\n    require(admins[newAdmin] ==0 && blacklist[newAdmin] ==0);\n    admins[newAdmin] = 1; adminCount++;\n  }\n  function removeAdmin (address newAdmin) public isAdmin{\n    require(admins[newAdmin] == 1 && adminCount > 0);\n    admins [newAdmin] = 0;adminCount--;\n  }\n\n  /** Add or remove a seller*/\n  function addSeller (address newSeller) public payable { // June 1 2019 - removed isAdmin qualifier\n    require(email[newSeller].length > 0); //11\n    require(sellers[newSeller].length == 0 && blacklist[newSeller] ==0);\n    sellers[newSeller].push(1);\n    sellerCount++;\n    Lib.setJoinDate(sellerProfiles, now, newSeller);\n  }\n  function removeSeller (address newSeller) public isAdmin{\n    require(sellers[newSeller][0] == 1 && sellerCount > 0);\n    sellers [newSeller][1] != 1; sellerCount--;\n  }\n\n  /** Add or remove someone from the blacklist*/\n  function addBlacklist (address newBlacklist) public isAdmin{\n    require(blacklist[newBlacklist] ==0);\n    blacklist[newBlacklist] = 1; blacklistCount++;\n  }\n  function removeBlacklist (address newBlacklist) public isAdmin{\n    require(blacklist[newBlacklist] ==1);\n    blacklist[newBlacklist] = 0; blacklistCount--;\n  }\n\n  function addEmail (bytes32 _email) public {\n    require(_email.length > 0 && _email.length < 100);\n    email[msg.sender] = _email;\n  }\n\n  function getEmail (address _user) public view returns (bytes32){\n    return email[_user];\n  }\n\n\n  /** mappings*/\n  mapping (address => bytes32) email; //11\n  mapping (address=>uint) admins; // 1 or 0 to keep track of admins // TODO change from uint to bool\n  mapping (address=>uint[]) sellers; // change from uint to uint[] --> element 0 is seller or not, remaining elements point to transactions index\n  mapping (address=>uint[]) buyers; // indices of transactions\n  Lib.SellerList sellerProfiles;\n  mapping (address=>uint) blacklist; // TODO change from uint to bool\n  mapping (uint=>Item) items; // Map might not be most efficient structure. Linked List better.\n  uint[] itemsForSale; // March 31 2019 - list of active items for sale\n  // each category name points to an array of items in the category\n  mapping (string => uint[]) categoryIndex; // need to remove item from array when sold out\n  mapping (string => uint[]) locationIndex; // need to remove item from array when sold out\n  Transaction[] purchase;\n  mapping (address=>uint) pendingReturns;\n  mapping (address=>uint[]) unsoldItems; // March2020 track each user's unsold items\n\n  //------------------------------------------------------------------------\n\n\n  //------------------------------------------------------------------------\n\n  /**  addItem puts an item up for either sale or auction\n  * Ony seller can add items\n  * Can be either auction or straight up sale\n  * Auctions start immediately with no minimum bid\n  */\n  function addItem(string memory _name, uint _price, /*State _state, uint _auctionLengthTime,*/ string memory _ipfsHash, uint _quantity, string memory _category, string memory _location) // quantity added March 31 2019\n  isSeller isNotBlacklisted stopInEmergency public returns(bool){\n    require (_quantity > 0 && _price > 0);\n    items[itemCount] = Item({\n      name: _name,\n      itemNumber: itemCount,\n      category: _category, // store in Item as well for cross referencing\n      location: _location,\n      catIndex: categoryIndex[_category].length,\n      locIndex: locationIndex[_location].length,\n      price: _price,\n      state: State.ForSale,\n      seller: msg.sender,\n      ipfsHash: _ipfsHash,\n      itemQuantity: _quantity,\n      indexInSaleTracker: itemsForSale.length,\n      indexInUnsold: unsoldItems[msg.sender].length\n    });\n\n    categoryIndex[_category].push(itemCount);\n    locationIndex[_location].push(itemCount);\n    unsoldItems[msg.sender].push(itemCount);\n\n    itemsForSale.push(itemCount);\n    itemCount++;\n    return true;\n  }\n\n\n  function makeItemUnavailable (uint itemNumber) internal{  // added March 31, 2019\n  // 1. Delete in general itemsForSale list\n    uint index = items[itemNumber].indexInSaleTracker;\n    require(index < itemsForSale.length);\n    itemsForSale[index] = itemsForSale[itemsForSale.length-1];\n    delete itemsForSale[itemsForSale.length-1];\n    itemsForSale.length--;\n  // 2a. remove from categoryIndex so it does not appear in Search\n    index = items[itemNumber].catIndex;\n    string memory cat = items[itemNumber].category;\n    require(index < categoryIndex[cat].length);\n    categoryIndex[cat][index] = categoryIndex[cat][categoryIndex[cat].length - 1];\n    delete categoryIndex[cat][categoryIndex[cat].length - 1];\n    categoryIndex[cat].length--;\n  // 2b. remove from unsoldindex so it does not appear in search\n     index = items[itemNumber].indexInUnsold;\n     address itemSender = items[itemNumber].seller;\n     require(index < unsoldItems[itemSender].length);\n     unsoldItems[itemSender][index] = unsoldItems[itemSender][unsoldItems[itemSender].length - 1];\n     delete unsoldItems[itemSender][unsoldItems[itemSender].length - 1];\n     unsoldItems[itemSender].length--;\n  // 2c. remove from getLocationIndex\n    index = items[itemNumber].locIndex;\n    string memory loc = items[itemNumber].location;\n    require(index < locationIndex[loc].length);\n    locationIndex[loc][index] = locationIndex[loc][locationIndex[loc].length - 1];\n    delete locationIndex[loc][locationIndex[loc].length - 1];\n    locationIndex[loc].length--;\n  // 3. set state to Sold\n    items[itemNumber].state = State.Sold;\n  }\n\n  /**\n  *  withdraw\n  * If you did not win the auction, you can withdraw\n  * your losing bid\n  */\n  function withdraw() public payable {\n      uint amount = pendingReturns[msg.sender];\n      if (amount > 0) {\n        pendingReturns[msg.sender] = 0;\n        msg.sender.transfer(amount);\n      }\n  }\n\n  /**\n  *  buyItem\n  * purchase for a fixeed Price\n  * Money goes directly to seller\n  */\n  function buyItem(uint itemNumber) public payable //Can be public because of isForSale modiier\n  isNotBlacklisted\n  isForSale(items[itemNumber].state)\n  isEnoughMoney(items[itemNumber].price)\n  stopInEmergency\n  {\n    // change this to use withdrawal pattern\n    items[itemNumber].seller.transfer(items[itemNumber].price); // transfer money from buyer to seller first\n    items[itemNumber].itemQuantity--; // reduce quantity by 1\n    if (items[itemNumber].itemQuantity < 1) makeItemUnavailable(itemNumber); // If out of stock, make unavailable\n\n    /*\n    * sellers(address->uint[])\n    * sellers(myAddress) is mapped to array. First index (0) = 1 if i am a seller\n    * Next indices (2)...(n) are references to transactions in which i am seller - current transaction is at purchase._length\n    *\n    * buyers (address->uint[])\n    * buyers(myaddress) is mapped to array.\n    * Each index is reference to tx where i am a buyer\n    */\n    sellers[items[itemNumber].seller].push(purchase.length);\n    buyers[msg.sender].push(purchase.length);\n\n\n    purchase.push(Transaction({\n      itemIndex:itemNumber,\n      rating: 0,\n      buyer:msg.sender,\n      txState: State.Sold\n      }));\n\n    emit Sold(itemNumber);\n    Lib.addSale(sellerProfiles, items[itemNumber].seller);\n\n    uint _price = items[itemNumber].price;\n    uint amountToRefund = msg.value - _price;\n    msg.sender.transfer(amountToRefund);\n\n  }\n\n  function sellerInfo(address a) public view returns (uint, uint, uint, uint){\n     return Lib.getSellerInfo(sellerProfiles, a);\n  }\n\n  function shipItem(uint transactionNumber) public\n  isSold (purchase[transactionNumber]) verifyCaller(items[purchase[transactionNumber].itemIndex].seller){\n    purchase[transactionNumber].txState = State.Shipped;\n    emit Shipped(transactionNumber);\n  }\n\n  /**\n  *  receiveItem\n  * Update supply chain information\n  * Allow the buyer to rate the seller once item is received\n  * Maybe change this - rate any time - item may never get sent / received\n  */\n  function receiveItem(uint transactionNumber, bool rateSeller, uint _sellerRating)\n  public isSoldOrShipped (purchase[transactionNumber]) verifyCaller(purchase[transactionNumber].buyer) {\n    purchase[transactionNumber].txState = State.Received;\n    emit Received(transactionNumber);\n    // TODO get rid of the following\n    if (rateSeller == true && purchase[transactionNumber].rating == 0){\n      require (_sellerRating >= 1 && _sellerRating <= MaxRating);\n      purchase[transactionNumber].rating = _sellerRating;\n      Lib.addRating(sellerProfiles, items[purchase[transactionNumber].itemIndex].seller, _sellerRating);\n    }\n    // reset variables to 0 to free up memory and get back Eth\n  }\n\n  function rateSeller(uint transactionNumber, uint _sellerRating)\n  public verifyCaller (purchase[transactionNumber].buyer)\n  isNotRated (purchase[transactionNumber]){\n    require (_sellerRating >= 1 && _sellerRating <= MaxRating);\n    purchase[transactionNumber].rating = _sellerRating;\n    Lib.addRating(sellerProfiles, items[purchase[transactionNumber].itemIndex].seller, _sellerRating);\n  }\n\n  // get rid of this function - covered in getTxInfo\n  function isRated (uint transactionNumber) public view returns (bool){\n    if (purchase[transactionNumber].rating == 0){\n      return true;\n    }\n    return false;\n  }\n\n  /**\n  *  getIpfsHash\n  * Return the ipfs hash of the image of the product for sale\n  */\n  function getIpfsHash(uint itemNumber) public view returns(string memory){\n    require(itemNumber <= itemCount);\n    return items[itemNumber].ipfsHash;\n  }\n\n  function getQuantity(uint itemNumber) public view returns(uint){\n    require(itemNumber <= itemCount);\n    return items[itemNumber].itemQuantity;\n  }\n\n  function getCategory(uint itemNumber) public view returns(string memory){\n    require(itemNumber <= itemCount);\n    return items[itemNumber].category;\n  }\n\n  function getLocation(uint itemNumber) public view returns(string memory){\n    require(itemNumber <= itemCount);\n    return items[itemNumber].location;\n  }\n\n  /**\n  *  getItemData\n  * Return as much of the item data as Solidity's stack can hold\n  * Have to return highest bidder and ipfsHash separately\n  */\n  function getItemData(uint itemNumber) public view\n    returns (string memory _name, uint _price, State _state, address _seller){\n    require(itemNumber <= itemCount);\n    return(items[itemNumber].name,\n      items[itemNumber].price,\n      items[itemNumber].state,\n      items[itemNumber].seller);\n  }\n\n\n  function getNumPurchases(address addr) public view returns (uint){\n    return buyers[addr].length;\n  }\n\n  function getNumUnsold (address addr) public view returns (uint){\n    return (unsoldItems[addr].length);\n  }\n\n  function getUnsold (address addr, uint i) public view returns (uint){\n    require (i < unsoldItems[addr].length);\n    return unsoldItems[addr][i];\n  }\n\n  function getNumSales(address addr) public view returns (uint){\n    if (sellers[addr].length == 0) return 0;\n    return sellers[addr].length - 1;\n  }\n\n  /** Get index of transaction from buyers array */\n  function getBuy (address addr, uint i) public view returns (uint){\n    require(i < buyers[addr].length);\n    return buyers[addr][i];\n  }\n\n  /** Get index of transaction from sellers array */\n  function getSell (address addr, uint i) public view returns (uint){\n    require(i < sellers[addr].length);\n    return sellers[addr][i];\n  }\n\n  function getTxInfo(uint n) public view returns (address _buyer, State _txState, uint _itemIndex, uint _rating){\n    require(purchase.length > n);\n    return (purchase[n].buyer,\n      purchase[n].txState,\n      purchase[n].itemIndex,\n      purchase[n].rating);\n  }\n\n  function postText(string memory _ownerText) public isOwner{\n    ownerText = _ownerText;\n  }\n\n  function getText() public view returns (string memory) {\n    return ownerText;\n  }\n\n  function deleteItem (uint itemNumber) isForSale(items[itemNumber].state) public  {\n    require(msg.sender == items[itemNumber].seller);\n    items[itemNumber].itemQuantity = 0;\n    makeItemUnavailable(itemNumber);\n  }\n\n  function editItem(string memory _name, uint _price, string memory _ipfsHash, uint _quantity, string memory _category, uint itemNumber, string memory _location)\n  isSeller isNotBlacklisted stopInEmergency public returns(bool){\n    require (\n      _quantity > 0 && _price > 0);\n    require (msg.sender == items[itemNumber].seller);\n\n    items[itemNumber] = Item({\n      name: _name,\n      itemNumber: itemCount,\n      category:_category, // store in Item as well for cross referencing\n      location: _location,\n      catIndex: categoryIndex[_category].length,\n      locIndex: locationIndex[_location].length,\n      price: _price,\n      state: State.ForSale,\n      seller: msg.sender,\n      ipfsHash: _ipfsHash,\n      itemQuantity: _quantity,\n      indexInSaleTracker: items[itemNumber].indexInSaleTracker, \n      indexInUnsold: items[itemNumber].indexInUnsold\n    });\n\n    return true;\n  }\n\n}\n",
  "sourcePath": "/home/mjmccrac/Documents/Final_v6_2020_WD_clean/contracts/Final.sol",
  "compiler": {
    "name": "solc",
    "version": "0.5.0+commit.1d4f565a.Emscripten.clang"
  },
  "schemaVersion": "3.0.9",
  "updatedAt": "2020-05-15T22:32:50.849Z",
  "devdoc": {
    "methods": {}
  },
  "userdoc": {
    "methods": {
      "addAdmin(address)": {
        "notice": "add or remove an admin "
      },
      "addBlacklist(address)": {
        "notice": "Add or remove someone from the blacklist"
      },
      "addItem(string,uint256,string,uint256,string,string)": {
        "notice": "addItem puts an item up for either sale or auction Ony seller can add items Can be either auction or straight up sale Auctions start immediately with no minimum bid"
      },
      "addSeller(address)": {
        "notice": "Add or remove a seller"
      },
      "buyItem(uint256)": {
        "notice": "buyItem purchase for a fixeed Price Money goes directly to seller"
      },
      "checkAdmin(address)": {
        "notice": "verify whether address is an admin "
      },
      "checkBlacklist(address)": {
        "notice": "verifies whether an address is blacklisted"
      },
      "checkSeller(address)": {
        "notice": "verify whether an address is a seller"
      },
      "constructor": "Start contract by defining owner and making him an admin*",
      "getBuy(address,uint256)": {
        "notice": "Get index of transaction from buyers array "
      },
      "getCategoryIndex(string,uint256)": {
        "notice": "return the array categoryIndex[cat][a, ..., n] so app can reference  items with getItemData(uint itemNumber) Unfortunately, solidity cannot return a dynamic array, so need to do the loop in javascript and call this view function to return values one iteration at a time*"
      },
      "getIpfsHash(uint256)": {
        "notice": "getIpfsHash Return the ipfs hash of the image of the product for sale"
      },
      "getItemData(uint256)": {
        "notice": "getItemData Return as much of the item data as Solidity's stack can hold Have to return highest bidder and ipfsHash separately"
      },
      "getNumActiveItems()": {
        "notice": "Number of Active Items for sale  *"
      },
      "getNumItems()": {
        "notice": "Total number of items that have ever been sold *"
      },
      "getNumItemsInCat(string)": {
        "notice": "Number of Active Items in a category *"
      },
      "getNumItemsInLoc(string)": {
        "notice": "Number of Active Items in a location *"
      },
      "getNumPurchases(address)": {
        "notice": "getHighBidder Return the current highest bidder for an auction The returns for \"getItemData\" were maxed out so this had to be in a separate function"
      },
      "getSaleIndex(uint256)": {
        "notice": "return requested index from itemsForSale *"
      },
      "getSell(address,uint256)": {
        "notice": "Get index of transaction from sellers array "
      },
      "receiveItem(uint256,bool,uint256)": {
        "notice": "receiveItem Update supply chain information Allow the buyer to rate the seller once item is received Maybe change this - rate any time - item may never get sent / received"
      },
      "toggleStop()": {
        "notice": "Circuit Breaker can be triggered by owner *"
      },
      "withdraw()": {
        "notice": "withdraw If you did not win the auction, you can withdraw your losing bid"
      }
    },
    "notice": "Main contract for ethereum store *"
  }
}