{
  "contractName": "Lib",
  "abi": [
    {
      "constant": true,
      "inputs": [
        {
          "name": "self",
          "type": "Lib.SellerList storage"
        },
        {
          "name": "a",
          "type": "address"
        }
      ],
      "name": "getJoinDate",
      "outputs": [
        {
          "name": "",
          "type": "uint256"
        }
      ],
      "payable": false,
      "stateMutability": "view",
      "type": "function"
    },
    {
      "constant": true,
      "inputs": [
        {
          "name": "self",
          "type": "Lib.SellerList storage"
        },
        {
          "name": "a",
          "type": "address"
        }
      ],
      "name": "getNumSales",
      "outputs": [
        {
          "name": "",
          "type": "uint256"
        }
      ],
      "payable": false,
      "stateMutability": "view",
      "type": "function"
    },
    {
      "constant": true,
      "inputs": [
        {
          "name": "self",
          "type": "Lib.SellerList storage"
        },
        {
          "name": "a",
          "type": "address"
        }
      ],
      "name": "getSellerInfo",
      "outputs": [
        {
          "name": "_rating",
          "type": "uint256"
        },
        {
          "name": "_numR",
          "type": "uint256"
        },
        {
          "name": "_numS",
          "type": "uint256"
        },
        {
          "name": "_jDate",
          "type": "uint256"
        }
      ],
      "payable": false,
      "stateMutability": "view",
      "type": "function"
    }
  ],
  "bytecode": "0x6103a3610030600b82828239805160001a6073146000811461002057610022565bfe5b5030600052607381538281f3fe730000000000000000000000000000000000000000301460806040526004361061006e576000357c0100000000000000000000000000000000000000000000000000000000900463ffffffff1680638f2da7a514610073578063b06104bb146100d5578063c760b2291461014c575b600080fd5b6100bf6004803603604081101561008957600080fd5b8101908080359060200190929190803573ffffffffffffffffffffffffffffffffffffffff1690602001909291905050506101ae565b6040518082815260200191505060405180910390f35b610121600480360360408110156100eb57600080fd5b8101908080359060200190929190803573ffffffffffffffffffffffffffffffffffffffff1690602001909291905050506101fd565b6040518085815260200184815260200183815260200182815260200194505050505060405180910390f35b6101986004803603604081101561016257600080fd5b8101908080359060200190929190803573ffffffffffffffffffffffffffffffffffffffff169060200190929190505050610328565b6040518082815260200191505060405180910390f35b60008260000160008373ffffffffffffffffffffffffffffffffffffffff1673ffffffffffffffffffffffffffffffffffffffff16815260200190815260200160002060020154905092915050565b6000806000808560000160008673ffffffffffffffffffffffffffffffffffffffff1673ffffffffffffffffffffffffffffffffffffffff168152602001908152602001600020600001548660000160008773ffffffffffffffffffffffffffffffffffffffff1673ffffffffffffffffffffffffffffffffffffffff168152602001908152602001600020600101548760000160008873ffffffffffffffffffffffffffffffffffffffff1673ffffffffffffffffffffffffffffffffffffffff168152602001908152602001600020600201548860000160008973ffffffffffffffffffffffffffffffffffffffff1673ffffffffffffffffffffffffffffffffffffffff16815260200190815260200160002060030154935093509350935092959194509250565b60008260000160008373ffffffffffffffffffffffffffffffffffffffff1673ffffffffffffffffffffffffffffffffffffffff1681526020019081526020016000206003015490509291505056fea165627a7a72305820951c2f2bee47ea0d724acd48be471a9e6c82b1cd390fb8c39f0ad64c1740f8090029",
  "source": "pragma solidity ^0.5.0;\n\n/**  Lib contains profile data for sellers */\nlibrary Lib{\n\n  /**\n  *  SellerProfile\n  * all profile data for seller\n  * ipfsHash to be implemented later\n  */\n  struct SellerProfile{\n    //address sellerAddress;\n    uint sellerRating;\n    uint numRatings;\n    uint numSales;\n    uint joinDate;\n    // IPFS profile picture Hash to be added later\n  }\n\n  /**  SellerList the main mapping variable */\n  struct SellerList{\n    mapping(address=>SellerProfile) sellerProfiles;\n  }\n\n  /**  setJoinDate sets when the person became a seller */\n  function setJoinDate(SellerList storage self, uint _joinDate, address a) internal {\n    require(self.sellerProfiles[a].joinDate == 0);\n    self.sellerProfiles[a].joinDate = _joinDate;\n  }\n  /**  addSale increments the number of sales in this person's name */\n  function addSale(SellerList storage self, address a) internal {\n    self.sellerProfiles[a].numSales ++;\n  }\n  /**  getJoinDate tells us when this address became a seller */\n  function getJoinDate(SellerList storage self, address a) public view returns (uint){\n    return self.sellerProfiles[a].joinDate;\n  }\n  /**  getNumSales tells how many sales came from this address */\n  function getNumSales(SellerList storage self, address a) public view returns (uint){\n    return self.sellerProfiles[a].numSales;\n  }\n  /**  addRating lets the buyer rate the seller */\n  function addRating(SellerList storage self, address a, uint _sellerRating)internal {\n    uint rating = self.sellerProfiles[a].sellerRating;\n    uint numRatings = self.sellerProfiles[a].numRatings;\n    self.sellerProfiles[a].sellerRating = uint(((rating * numRatings) + _sellerRating) / (numRatings + 1));\n    self.sellerProfiles[a].numRatings++;\n  }\n  /** Returns all stats about a given seller */\n  function getSellerInfo (SellerList storage self, address a) public view\n    returns (uint _rating, uint _numR, uint _numS, uint _jDate){\n    //require(self.sellerProfiles[a].joinDate != 0);\n    return (\n      self.sellerProfiles[a].sellerRating,\n      self.sellerProfiles[a].numRatings,\n      self.sellerProfiles[a].numSales,\n      self.sellerProfiles[a].joinDate\n    );\n  }\n\n}\n",
  "sourcePath": "/home/mjmccrac/Documents/Final_v5_2020_WD/contracts/FinalLibrary.sol",
  "compiler": {
    "name": "solc",
    "version": "0.5.0+commit.1d4f565a.Emscripten.clang"
  },
  "schemaVersion": "3.0.9",
  "updatedAt": "2020-04-26T22:43:56.480Z",
  "devdoc": {
    "methods": {}
  },
  "userdoc": {
    "methods": {
      "getJoinDate(Lib.SellerList storage,address)": {
        "notice": "getJoinDate tells us when this address became a seller "
      },
      "getNumSales(Lib.SellerList storage,address)": {
        "notice": "getNumSales tells how many sales came from this address "
      },
      "getSellerInfo(Lib.SellerList storage,address)": {
        "notice": "Returns all stats about a given seller "
      }
    },
    "notice": "Lib contains profile data for sellers "
  }
}